{
  "contractName": "RegistroContract",
  "abi": [
    {
      "anonymous": false,
      "inputs": [
        {
          "indexed": true,
          "internalType": "address",
          "name": "_from",
          "type": "address"
        },
        {
          "indexed": true,
          "internalType": "address",
          "name": "_to",
          "type": "address"
        },
        {
          "indexed": false,
          "internalType": "uint256",
          "name": "_value",
          "type": "uint256"
        }
      ],
      "name": "Transfer",
      "type": "event"
    },
    {
      "inputs": [
        {
          "internalType": "address",
          "name": "",
          "type": "address"
        }
      ],
      "name": "balanceOf",
      "outputs": [
        {
          "internalType": "uint56",
          "name": "",
          "type": "uint56"
        }
      ],
      "stateMutability": "view",
      "type": "function"
    },
    {
      "inputs": [
        {
          "internalType": "address",
          "name": "",
          "type": "address"
        }
      ],
      "name": "consultaMapping",
      "outputs": [
        {
          "internalType": "bool",
          "name": "",
          "type": "bool"
        }
      ],
      "stateMutability": "view",
      "type": "function"
    },
    {
      "inputs": [
        {
          "internalType": "address",
          "name": "",
          "type": "address"
        }
      ],
      "name": "voted",
      "outputs": [
        {
          "internalType": "bool",
          "name": "",
          "type": "bool"
        }
      ],
      "stateMutability": "view",
      "type": "function"
    },
    {
      "inputs": [],
      "name": "lengthConsultaArray",
      "outputs": [
        {
          "internalType": "uint256",
          "name": "",
          "type": "uint256"
        }
      ],
      "stateMutability": "view",
      "type": "function"
    },
    {
      "inputs": [
        {
          "internalType": "address[]",
          "name": "_consulta",
          "type": "address[]"
        }
      ],
      "name": "addConsulta",
      "outputs": [],
      "stateMutability": "nonpayable",
      "type": "function"
    },
    {
      "inputs": [],
      "name": "postConsulta",
      "outputs": [
        {
          "internalType": "address[]",
          "name": "",
          "type": "address[]"
        }
      ],
      "stateMutability": "view",
      "type": "function"
    },
    {
      "inputs": [],
      "name": "getConsulta",
      "outputs": [
        {
          "internalType": "address[]",
          "name": "",
          "type": "address[]"
        }
      ],
      "stateMutability": "view",
      "type": "function"
    },
    {
      "inputs": [
        {
          "internalType": "address",
          "name": "_from",
          "type": "address"
        },
        {
          "internalType": "address",
          "name": "_consulta",
          "type": "address"
        }
      ],
      "name": "vote",
      "outputs": [
        {
          "internalType": "bool",
          "name": "success",
          "type": "bool"
        }
      ],
      "stateMutability": "nonpayable",
      "type": "function"
    }
  ],
  "bytecode": "0x608060405234801561001057600080fd5b506110fa806100206000396000f3fe608060405234801561001057600080fd5b50600436106100885760003560e01c8063585321bf1161005b578063585321bf1461012957806370a0823114610147578063aec2ccae14610177578063c7d68065146101a757610088565b8063181316001461008d5780631afa74e5146100ab57806337509e8e146100db57806351319eb51461010b575b600080fd5b6100956101c3565b6040516100a29190610c4d565b60405180910390f35b6100c560048036038101906100c09190610caf565b610251565b6040516100d29190610d0a565b60405180910390f35b6100f560048036038101906100f09190610d25565b6105c0565b6040516101029190610d0a565b60405180910390f35b6101136105e0565b6040516101209190610c4d565b60405180910390f35b61013161066e565b60405161013e9190610d6b565b60405180910390f35b610161600480360381019061015c9190610d25565b61067b565b60405161016e9190610da8565b60405180910390f35b610191600480360381019061018c9190610d25565b6106a1565b60405161019e9190610d0a565b60405180910390f35b6101c160048036038101906101bc9190610f1c565b6106c1565b005b6060600380548060200260200160405190810160405280929190818152602001828054801561024757602002820191906000526020600020905b8160009054906101000a900473ffffffffffffffffffffffffffffffffffffffff1673ffffffffffffffffffffffffffffffffffffffff16815260200190600101908083116101fd575b5050505050905090565b6000600260009054906101000a900473ffffffffffffffffffffffffffffffffffffffff1673ffffffffffffffffffffffffffffffffffffffff163373ffffffffffffffffffffffffffffffffffffffff16146102ad57600080fd5b8273ffffffffffffffffffffffffffffffffffffffff163373ffffffffffffffffffffffffffffffffffffffff1614156102e657600080fd5b8173ffffffffffffffffffffffffffffffffffffffff163373ffffffffffffffffffffffffffffffffffffffff16141561031f57600080fd5b60011515600560008573ffffffffffffffffffffffffffffffffffffffff1673ffffffffffffffffffffffffffffffffffffffff16815260200190815260200160002060009054906101000a900460ff161515141561037d57600080fd5b60011515600660008473ffffffffffffffffffffffffffffffffffffffff1673ffffffffffffffffffffffffffffffffffffffff16815260200190815260200160002060009054906101000a900460ff161515146103da57600080fd5b6103e383610979565b6103ec57600080fd5b6001600460008573ffffffffffffffffffffffffffffffffffffffff1673ffffffffffffffffffffffffffffffffffffffff16815260200190815260200160002060008282829054906101000a900466ffffffffffffff1661044e9190610f94565b92506101000a81548166ffffffffffffff021916908366ffffffffffffff1602179055506001600460008473ffffffffffffffffffffffffffffffffffffffff1673ffffffffffffffffffffffffffffffffffffffff16815260200190815260200160002060008282829054906101000a900466ffffffffffffff166104d49190610fc8565b92506101000a81548166ffffffffffffff021916908366ffffffffffffff1602179055508173ffffffffffffffffffffffffffffffffffffffff168373ffffffffffffffffffffffffffffffffffffffff167fddf252ad1be2c89b69c2b068fc378daa952ba7f163c4a11628f55a4df523b3ef6001604051610556919061104a565b60405180910390a36001600560008573ffffffffffffffffffffffffffffffffffffffff1673ffffffffffffffffffffffffffffffffffffffff16815260200190815260200160002060006101000a81548160ff0219169083151502179055506001905092915050565b60066020528060005260406000206000915054906101000a900460ff1681565b6060600380548060200260200160405190810160405280929190818152602001828054801561066457602002820191906000526020600020905b8160009054906101000a900473ffffffffffffffffffffffffffffffffffffffff1673ffffffffffffffffffffffffffffffffffffffff168152602001906001019080831161061a575b5050505050905090565b6000600380549050905090565b60046020528060005260406000206000915054906101000a900466ffffffffffffff1681565b60056020528060005260406000206000915054906101000a900460ff1681565b600260009054906101000a900473ffffffffffffffffffffffffffffffffffffffff1673ffffffffffffffffffffffffffffffffffffffff163373ffffffffffffffffffffffffffffffffffffffff161461071b57600080fd5b6000600260146101000a81548166ffffffffffffff021916908366ffffffffffffff1602179055505b8051600260149054906101000a900466ffffffffffffff1666ffffffffffffff16101561097657600115156006600083600260149054906101000a900466ffffffffffffff1666ffffffffffffff16815181106107a4576107a3611065565b5b602002602001015173ffffffffffffffffffffffffffffffffffffffff1673ffffffffffffffffffffffffffffffffffffffff16815260200190815260200160002060009054906101000a900460ff1615151461092757600381600260149054906101000a900466ffffffffffffff1666ffffffffffffff168151811061082e5761082d611065565b5b60200260200101519080600181540180825580915050600190039060005260206000200160009091909190916101000a81548173ffffffffffffffffffffffffffffffffffffffff021916908373ffffffffffffffffffffffffffffffffffffffff16021790555060016006600083600260149054906101000a900466ffffffffffffff1666ffffffffffffff16815181106108cd576108cc611065565b5b602002602001015173ffffffffffffffffffffffffffffffffffffffff1673ffffffffffffffffffffffffffffffffffffffff16815260200190815260200160002060006101000a81548160ff0219169083151502179055505b6002601481819054906101000a900466ffffffffffffff168092919061094c90611094565b91906101000a81548166ffffffffffffff021916908366ffffffffffffff16021790555050610744565b50565b600080600460003373ffffffffffffffffffffffffffffffffffffffff1673ffffffffffffffffffffffffffffffffffffffff16815260200190815260200160002060009054906101000a900466ffffffffffffff1666ffffffffffffff16116109e257600080fd5b6001600460003373ffffffffffffffffffffffffffffffffffffffff1673ffffffffffffffffffffffffffffffffffffffff16815260200190815260200160002060008282829054906101000a900466ffffffffffffff16610a449190610f94565b92506101000a81548166ffffffffffffff021916908366ffffffffffffff1602179055506001600460008473ffffffffffffffffffffffffffffffffffffffff1673ffffffffffffffffffffffffffffffffffffffff16815260200190815260200160002060008282829054906101000a900466ffffffffffffff16610aca9190610fc8565b92506101000a81548166ffffffffffffff021916908366ffffffffffffff1602179055508173ffffffffffffffffffffffffffffffffffffffff163373ffffffffffffffffffffffffffffffffffffffff167fddf252ad1be2c89b69c2b068fc378daa952ba7f163c4a11628f55a4df523b3ef6001604051610b4c919061104a565b60405180910390a360019050919050565b600081519050919050565b600082825260208201905092915050565b6000819050602082019050919050565b600073ffffffffffffffffffffffffffffffffffffffff82169050919050565b6000610bb482610b89565b9050919050565b610bc481610ba9565b82525050565b6000610bd68383610bbb565b60208301905092915050565b6000602082019050919050565b6000610bfa82610b5d565b610c048185610b68565b9350610c0f83610b79565b8060005b83811015610c40578151610c278882610bca565b9750610c3283610be2565b925050600181019050610c13565b5085935050505092915050565b60006020820190508181036000830152610c678184610bef565b905092915050565b6000604051905090565b600080fd5b600080fd5b610c8c81610ba9565b8114610c9757600080fd5b50565b600081359050610ca981610c83565b92915050565b60008060408385031215610cc657610cc5610c79565b5b6000610cd485828601610c9a565b9250506020610ce585828601610c9a565b9150509250929050565b60008115159050919050565b610d0481610cef565b82525050565b6000602082019050610d1f6000830184610cfb565b92915050565b600060208284031215610d3b57610d3a610c79565b5b6000610d4984828501610c9a565b91505092915050565b6000819050919050565b610d6581610d52565b82525050565b6000602082019050610d806000830184610d5c565b92915050565b600066ffffffffffffff82169050919050565b610da281610d86565b82525050565b6000602082019050610dbd6000830184610d99565b92915050565b600080fd5b6000601f19601f8301169050919050565b7f4e487b7100000000000000000000000000000000000000000000000000000000600052604160045260246000fd5b610e1182610dc8565b810181811067ffffffffffffffff82111715610e3057610e2f610dd9565b5b80604052505050565b6000610e43610c6f565b9050610e4f8282610e08565b919050565b600067ffffffffffffffff821115610e6f57610e6e610dd9565b5b602082029050602081019050919050565b600080fd5b6000610e98610e9384610e54565b610e39565b90508083825260208201905060208402830185811115610ebb57610eba610e80565b5b835b81811015610ee45780610ed08882610c9a565b845260208401935050602081019050610ebd565b5050509392505050565b600082601f830112610f0357610f02610dc3565b5b8135610f13848260208601610e85565b91505092915050565b600060208284031215610f3257610f31610c79565b5b600082013567ffffffffffffffff811115610f5057610f4f610c7e565b5b610f5c84828501610eee565b91505092915050565b7f4e487b7100000000000000000000000000000000000000000000000000000000600052601160045260246000fd5b6000610f9f82610d86565b9150610faa83610d86565b925082821015610fbd57610fbc610f65565b5b828203905092915050565b6000610fd382610d86565b9150610fde83610d86565b92508266ffffffffffffff03821115610ffa57610ff9610f65565b5b828201905092915050565b6000819050919050565b6000819050919050565b600061103461102f61102a84611005565b61100f565b610d52565b9050919050565b61104481611019565b82525050565b600060208201905061105f600083018461103b565b92915050565b7f4e487b7100000000000000000000000000000000000000000000000000000000600052603260045260246000fd5b600061109f82610d86565b915066ffffffffffffff8214156110b9576110b8610f65565b5b60018201905091905056fea2646970667358221220efe0af628a3f878057d6eb621652323da96a4292130e6b69d46ab3666d810c5f64736f6c634300080a0033",
  "immutableReferences": {},
  "source": "// SPDX-License-Identifier: MIT\r\npragma solidity 0.8.10;\r\n\r\ncontract RegistroContract {\r\n\r\n    string name;\r\n    uint56 numero;\r\n    uint56 totalSupply;\r\n    address owner;\r\n    uint56 i;\r\n\r\n    address[] consultaArray;\r\n    mapping(address => uint56) public balanceOf;\r\n    mapping(address => bool) public voted;\r\n    mapping(address => bool) public consultaMapping;\r\n\r\n    //constructor() public {\r\n    //    name = \"Pasaporte Covid\";\r\n    //    totalSupply = 100;\r\n    //    balanceOf[msg.sender] = totalSupply;\r\n    //   owner = msg.sender;\r\n    //}\r\n\r\n    event Transfer(address indexed _from, address indexed _to, uint256 _value);\r\n\r\n    function lengthConsultaArray()public view returns(uint256){\r\n        return consultaArray.length;\r\n\r\n    }\r\n\r\n    function addConsulta(address[] memory _consulta) public{\r\n        require(msg.sender == owner);\r\n        for (i = 0; i < _consulta.length; i++){\r\n            if(consultaMapping [_consulta [i]] != true){\r\n                consultaArray.push (_consulta[i]);\r\n                (consultaMapping [_consulta[i]] = true);\r\n            }\r\n        }\r\n    }\r\n      function postConsulta() view public returns(address[] memory){\r\n        return consultaArray;\r\n    }\r\n\r\n    function getConsulta() view public returns(address[] memory){\r\n        return consultaArray;\r\n    }\r\n\r\n    function transfer(address _to) private returns (bool success){\r\n          require(balanceOf[msg.sender]> 0);\r\n\r\n          balanceOf[msg.sender] -= 1;\r\n          balanceOf[_to] += 1;\r\n          emit Transfer(msg.sender, _to,  1);\r\n          return true;\r\n    }\r\n\r\n    function vote (address _from, address _consulta) public returns (bool success){\r\n        require(msg.sender == owner);\r\n        require(msg.sender != _from );\r\n        require(msg.sender != _consulta);\r\n        require(voted[_from] != true);\r\n        require(consultaMapping[_consulta] == true);\r\n        require(transfer(_from));\r\n\r\n        balanceOf[_from] -= 1;\r\n        balanceOf[_consulta] += 1;\r\n        emit Transfer(_from, _consulta,  1);\r\n        voted[_from] = true;\r\n        return true;\r\n    }\r\n}\r\n",
  "sourcePath": "C:\\xampp\\htdocs\\PasaporteCovid\\contracts\\RegistroContract.sol",
  "compiler": {
    "name": "solc",
    "version": "0.8.10+commit.fc410830.Emscripten.clang"
  },
  "schemaVersion": "3.4.3",
  "updatedAt": "2021-11-20T13:09:05.775Z",
  "devdoc": {
    "kind": "dev",
    "methods": {},
    "version": 1
  },
  "userdoc": {
    "kind": "user",
    "methods": {},
    "version": 1
  }
}